:020000020000FC
:100A00000F931F933199FECF000000003199FACF68
:100A100012D0402E10D0302E0ED0202E409A000042
:100A200000000000000040985ED0251836084708F6
:100A30001F910F910895002718E0409A00000000D0
:100A4000000F3199039540981A95B9F708950F93BF
:100A50001F932F933F934F9300E1552466247724EF
:100A60001127222733274427CBDF120D231D341DE6
:100A700008F443950A95C1F704E046953795279504
:100A800017950A95D1F7732E622E512E4F913F91F3
:100A90002F911F910F9108950F931F932F933F93C1
:100AA0004F9311272227332744270DE444200AF4CB
:100AB0001AD0209E212D102D309E200D311D08F4BE
:100AC0004395409E300D411D222E332E442E06E0CC
:100AD0004694379427940A95D9F74F913F912F91D7
:100AE0001F910F9108950F93002740943094219403
:100AF00010F0301E401E0F9108950F93D0E0C4E017
:100B00000091C10000620093C10078940F91089594
:100B10000F9300E00093C5000FEC0093C40002E0C7
:100B20000093C00006E00093C20008EE0093C100ED
:100B30000F9108950F93389A3A9A3B9A3998419AAF
:100B400000EF0AB9209A219A229ADDDA0F910895CE
:100B50000F9308E2C3D1D7DA0CE0C0D1D4DA0F91F9
:100B600008950F93032D003110F40F910895FEE0C6
:100B7000E2ECC9D14398AA249924882441DF4A147D
:100B8000E9F73914D9F705E02016C0F70F916CCAC0
:100B90000F931F9301E034DF7FDF3016E0F314E0A2
:100BA0001A95C9F32DDF78DF3016D0F716E01A95C5
:100BB00091F326DF71DF3016D0F31F910F91089566
:100E0000202020532E482E492E562E412E200A47B0
:100E10006F6C7065652032207665636573FF436F84
:100E20006C6F71756520756E207661736FFF476F0B
:100E30006C7065617220322076656365730A70613B
:100E4000726120656C65676972207661736FFFFF60
:100E500050494E544120283530306D6C290A476F77
:100E60006C7065652070617261206F74726FFFFF36
:100E700043484F505020283337356D6C290A476F4F
:100E80006C7065652070617261206F74726FFFFF16
:100E9000312F322050494E544120283235306D6C6C
:100EA000290A476F6C7065652070617261206F74EC
:100EB000726FFFFF5369727669656E646F2E2E2E16
:100EC0002EFF2020202050726F6365736F0A202050
:100ED0002063616E63656C61646FFFFF1F93102F69
:100EE000107F1BB9289829982A9AF7D82A98102F8A
:100EF0001295107F1BB9289829982A9AEED82A981B
:100F0000F5D81F9108950F931F9301E0E7DFFBD8F9
:100F100005910F3FC9F00A3021F400ECDFDFF3D870
:100F2000F7CF102F107F1BB9289A29982A9AD5D865
:100F30002A98102F1295107F1BB9289A29982A9A5F
:0E0F4000CCD82A98D3D8E4CF0F911F910895F2
:040000000C94340028
:04004C000C944B00C5
:1000680008E00EBF0FEF0DBF61D54ED56DD5429A92
:100078004398E9D4FEE0E0E042D786D5FEE0EEE121
:100088003ED74298439AB8D403D567D5FACF0F9391
:100098000881CA950093C600C13011F00F911895D8
:1000A8000091C1000F7D0093C1000F9118954F93E7
:1000B8005F936F9340E258EC6AEF000000006A9586
:1000C800E1F75A95C9F74A95B1F76F915F914F914A
:1000D800089500000000000000000000000000007B
:1000E800000008955F936F9352E060EA00000000FB
:1000F8006A95E1F75A95C9F76F915F9108955F93F3
:100108006F9355E26AEF000000006A95E1F75A958F
:08011800C9F76F915F91089592
:00000001FF
