:020000020000FC
:100A00000F931F933199FECF000000003199FACF68
:100A100012D0402E10D0302E0ED0202E409A000042
:100A200000000000000040985ED0251836084708F6
:100A30001F910F910895002718E0409A00000000D0
:100A4000000F3199039540981A95B9F708950F93BF
:100A50001F932F933F934F9300E1552466247724EF
:100A60001127222733274427CBDF120D231D341DE6
:100A700008F443950A95C1F704E046953795279504
:100A800017950A95D1F7732E622E512E4F913F91F3
:100A90002F911F910F9108950F931F932F933F93C1
:100AA0004F9311272227332744270DE444200AF4CB
:100AB0001AD0209E212D102D309E200D311D08F4BE
:100AC0004395409E300D411D222E332E442E06E0CC
:100AD0004694379427940A95D9F74F913F912F91D7
:100AE0001F910F9108950F93002740943094219403
:100AF00010F0301E401E0F9108950F93F0E0E4E0D7
:100B00000091C10000620093C10078940F91089594
:100B10000F9300E00093C5000FEC0093C40002E0C7
:100B20000093C00006E00093C20008EE0093C100ED
:100B30000F910895389A3A9A3B9A3998419A0895B4
:100B40000F93032D003110F40F9108954398AA24B8
:100B50009924882455DF4A14C9F73914B9F705E0F8
:100B60002016A0F70F9180CA0F931F9301E048DF72
:100B700093DF3016E0F314E01A95C9F341DF8CDF00
:100B80003016D0F716E01A9591F33ADF85DF30166C
:080B9000D0F31F910F910895AD
:040000000C94340028
:04004C000C944400CC
:1000680008E00EBF0FEF0DBF61D54ED5429A4398F9
:10007800EAD476D54298439ABFD40AD55DD5FACF4B
:100088000F930081EA950093C600E13011F00F91BB
:1000980018950091C1000F7D0093C1000F9118952C
:1000A8004F935F936F9340E258EC6AEF00000000B3
:1000B8006A95E1F75A95C9F74A95B1F76F915F913B
:0400C8004F910895B7
:00000001FF
