:020000020000FC
:100A00000F931F933199FECF000000003199FACF68
:100A100012D0402E10D0302E0ED0202E409A000042
:100A200000000000000040985ED0251836084708F6
:100A30001F910F910895002718E0409A00000000D0
:100A4000000F3199039540981A95B9F708950F93BF
:100A50001F932F933F934F9300E1552466247724EF
:100A60001127222733274427CBDF120D231D341DE6
:100A700008F443950A95C1F704E046953795279504
:100A800017950A95D1F7732E622E512E4F913F91F3
:100A90002F911F910F9108950F931F932F933F93C1
:100AA0004F9311272227332744270DE444200AF4CB
:100AB0001AD0209E212D102D309E200D311D08F4BE
:100AC0004395409E300D411D222E332E442E06E0CC
:100AD0004694379427940A95D9F74F913F912F91D7
:100AE0001F910F9108950F93002740943094219403
:100AF00010F0301E401E0F9108950F93389A3998C8
:100B0000419A219A00EF0AB9249A239A229A04DB87
:100B10000F9108950F9308E230D2FEDA0CE02DD247
:100B2000FBDA0F9108950F9301E00093890000E430
:100B30000093880003E8009380000DE0009381009B
:100B400001E000936F000F9108950F931F9301E050
:100B500096F056DFA1DF3016D8F314E01A95C1F3F2
:100B60004FDF9ADF3016D0F716E01A9589F348DF89
:100B700093DF3016D0F31F910F9108950F93032D3B
:100B8000003110F40F910895FEE0ECEE0BD212E06C
:100B90000AE036DF281839084A0808F4A4DF4420A0
:100BA000C1F73320B1F72016A0F71A9591F70F91EE
:100BB0005BCA0F9308EC14E023DF6EDFDFDF332026
:100BC00011F42016C8F3822C932CA42C19DF64DFB7
:100BD000D5DF281839084A0808F485DF442061F772
:100BE000332051F7211640F7FEE0EEE2DBD12FDF94
:100BF0000F9108950F931F932F93EF93FF931FEF80
:100C0000FEE0E8E5CFD1B590C590B116C9F392DA10
:100C10009CDF26F000E000936E00F4CF00E005BDFD
:100C200000E000936E00E894FF91EF912F911F91E7
:040C30000F91089583
:100E0000202020532E482E492E562E412E200A47B0
:100E10006F6C7065652032207665636573FF436F84
:100E20006C6F71756520756E207661736FFF416719
:100E300075617264652E2E2E20FF456C696A6120F3
:100E40006C61206D6564696461200A676F6C706510
:100E5000616E646F207832FF50494E54412028352E
:100E600030306D6C290A476F6C7065652070617257
:100E700061206F74726F2EFFF40143484F50502071
:100E8000283337356D6C290A476F6C7065652070A3
:100E9000617261206F74726F2EFF7701312F3220E3
:100EA00050494E5441283235306D6C29200A476F25
:100EB0006C7065652070617261206F74726F20FFC5
:100EC000FA00FFFFFFFF5075656465207365727659
:100ED00069722E2E2EFF50756564652072657469E7
:100EE0007261720A656C207661736FFF202020208A
:100EF00050726F6365736F200A20202063616E63F8
:100F0000656C61646FFF0F9301E00093890001E657
:100F1000009388000F9108950F931F934F935F9351
:100F20006F934B2D5C2D56954795642F669566956E
:100F300066956695669564DDAFDD20DE3516D8F3DF
:100F40002416C8F30091880010918900015018F40C
:100F50001A95083058F01093890000938800460FC6
:100F600008F453955C1538F34B1528F3DCDD6F91CD
:100F70005F914F911F910F9108951F93102F107F34
:100F80001BB92C982B982A9AB0D82A98102F129512
:100F9000107F1BB92C982B982A9AA7D82A98AED8DC
:100FA0001F9108950F931F9301E0E7DFB5D80591D6
:100FB0000F3FC9F00A3021F400ECDFDFADD8F7CFE6
:100FC000102F107F1BB92C9A2B982A9A8ED82A980A
:100FD000102F1295107F1BB92C9A2B982A9A85D81E
:0C0FE0002A988CD8E4CF1F910F9108953F
:040000000C94340028
:040034000C945A00CE
:040040000C946300B9
:1000680008E00EBF0FEF0DBF789443D558D54ED595
:10007800AA2499248824FEE0EEE290D7E4D4FEE096
:10008800E0E08CD7FEE0EEE189D78FD5FEE0EAE329
:1000980085D7ACD5FEE0EEE281D731D7FEE0E6ECBD
:1000A8007DD736D7FEE0E6ED79D7DACF0F9301E0BA
:1000B8000093850009E3009384000F9118957A95C1
:1000C80009F4689418950F9308EB06BD002704BD42
:1000D80005E005BDA89BFECF002705BDA89A0F9196
:1000E800089500000000000000000000000000006B
:1000F800000008950F9308EF06BD002704BD04E033
:1001080005BDA89BFECF002705BDA89A0F910895AD
:100118000F9305E406BD002704BD04E005BDA89BB8
:10012800FECF002705BDA89A0F9108950F930027C9
:1001380006BD002704BD05E005BD01E000936E0083
:0801480074EF78940F91089503
:00000001FF
