:020000020000FC
:100A00000F931F933199FECF000000003199FACF68
:100A100012D0402E10D0302E0ED0202E409A000042
:100A200000000000000040985ED0251836084708F6
:100A30001F910F910895002718E0409A00000000D0
:100A4000000F3199039540981A95B9F708950F93BF
:100A50001F932F933F934F9300E1552466247724EF
:100A60001127222733274427CBDF120D231D341DE6
:100A700008F443950A95C1F704E046953795279504
:100A800017950A95D1F7732E622E512E4F913F91F3
:100A90002F911F910F9108950F931F932F933F93C1
:100AA0004F9311272227332744270DE444200AF4CB
:100AB0001AD0209E212D102D309E200D311D08F4BE
:100AC0004395409E300D411D222E332E442E06E0CC
:100AD0004694379427940A95D9F74F913F912F91D7
:100AE0001F910F9108950F93002740943094219403
:100AF00010F0301E401E0F9108950F93389A3998C8
:100B0000419A219A00EF0AB9249A239A229A20DB6B
:100B10000F9108950F9308E248D21ADB0CE045D2FA
:100B200017DB0F9108950F9301E00093890000E413
:100B30000093880003E8009380000DE0009381009B
:100B400001E000936F000F9108950F931F9301E050
:100B500096F056DFA1DF3016D8F314E01A95C1F3F2
:100B60004FDF9ADF3016D0F716E01A9589F348DF89
:100B700093DF3016D0F31F910F9108950F93032D3B
:100B8000003110F40F9108951F93FEE0E6EE22D29B
:100B900016E004E035DF80DF281839084A0808F439
:100BA000A2DF4420A9F7332099F7201688F71A9579
:100BB00089F71F910F910C9434000F931F932F937B
:100BC0003F934F935F9308EC14E026E019DF64DF56
:100BD000D5DF332011F42016C8F3322D432D542DC8
:100BE0000FDF5ADFCBDF231A340A450A08F47BDF14
:100BF000442059F7332049F7211638F72A9531F761
:100C0000832E942EA52EFEE0EEE2E4D120DF5F914C
:100C10004F913F912F911F910F9108950F931F9323
:100C20002F93EF93FF9310EFFEE0E8E5D3D1B5905B
:100C3000C590B116C9F39ADA88DF26F000E0009378
:100C40006E00F4CF00E005BD00E000936E00E89474
:100C5000FF91EF912F911F910F9108950F931F9383
:100C600014E006E0CDDE18DF281839084A0808F439
:100C70003ADF4420B1F73320A1F7211690F70A9507
:080C800089F71F910F910895FF
:100E0000202020532E482E492E562E412E200A47B0
:100E10006F6C7065652032207665636573F0436F93
:100E20006C6F71756520756E207661736FF0416728
:100E300075617264652E2E2E20F0456C696A612002
:100E40006C61206D6564696461200A636F6E203295
:100E500020676F6C706573F050494E544120283400
:100E600037336D6C290A476F6C706565207061724D
:100E700061206F7472612EF0D90143484F505020A9
:100E8000283335306D6C290A476F6C7065652070AA
:100E9000617261206F7472612EF05E01312F322019
:100EA00050494E5441283235306D6C29200A476F25
:100EB0006C7065652070617261206F7472612EF0D4
:100EC000FA00F0F0F0F053697276612E2E2E0AF0DF
:100ED000507565646520726574697261720A656C2B
:100EE000207661736FF02020202050726F6365734D
:100EF0006F200A20202063616E63656C61646FF06F
:100F00000F9301E00093890001E6009388000F91A0
:100F100008950F931F932F936F937F933F934F9356
:100F20005F936B2D7C2D76956795562F569556952C
:100F30005695569556954427332724E0350F08F4E7
:100F40004395C416A0F04C1510F03B1580F458DD05
:100F5000A3DD14DE3416D8F32316C8F3741710F08B
:100F6000361708F00ED02A9549F7A7D8E6CFDBDD73
:100F70005F914F913F917F916F912F911F910F91B1
:100F800008950F931F9300918800109189000150DC
:100F900008F41A95113030F0013420F010938900D4
:100FA000009388001F910F9108951F93102F107FB9
:100FB0001BB92C982B982A9AB4D82A98102F1295DE
:100FC000107F1BB92C982B982A9AABD82A98B2D8A4
:100FD0001F9108950F931F9301E0E7DFB9D80591A2
:100FE000003FC9F00A3021F400ECDFDFB1D8F7CFC1
:100FF000102F107F1BB92C9A2B982A9A92D82A98D6
:10100000102F1295107F1BB92C9A2B982A9A89D8E9
:0C1010002A9890D8E4CF1F910F9108950A
:040000000C94340028
:040034000C947200B6
:040040000C947B00A1
:1000680008E00EBF0FEF0DBF789443D558D54ED595
:10007800AA2499248824FEE0EEE2A8D7E4D4FEE07E
:10008800E0E0A4D75ED5FEE0EEE1A0D792D5FEE091
:10009800EAE39CD730D0BED5FEE0EEE297D72CD766
:1000A800FEE0E6EC93D731D7FEE0E0ED8FD7D2D56E
:1000B800D7CF1F931FEF107F1BB92C9A2B982A9A22
:1000C8002CD02A981FEF1295107F1BB92C9A2B98C9
:1000D8002A9A23D02A982AD01F9108950F9301E0D5
:1000E8000093850009E3009384000F9118957A9591
:1000F80009F4689418950F9300E006BD002704BD25
:1001080005E005BD08EBA89BFECFA89A0A95D9F78C
:10011800002705BDA89A0F9108950000000000006F
:100128000000000000000000000008950F9308EF91
:1001380006BD002704BD04E005BDA89BFECF00272F
:1001480005BDA89A0F9108950F9305E406BD0027F1
:1001580004BD04E005BDA89BFECF002705BDA89AF5
:100168000F9108950F93002706BD002704BD05E0F1
:1001780005BD01E000936E0074EF78940F91089527
:00000001FF
