:020000020000FC
:100A00000F931F933199FECF000000003199FACF68
:100A100012D0402E10D0302E0ED0202E409A000042
:100A200000000000000040985ED0251836084708F6
:100A30001F910F910895002718E0409A00000000D0
:100A4000000F3199039540981A95B9F708950F93BF
:100A50001F932F933F934F9300E1552466247724EF
:100A60001127222733274427CBDF120D231D341DE6
:100A700008F443950A95C1F704E046953795279504
:100A800017950A95D1F7732E622E512E4F913F91F3
:100A90002F911F910F9108950F931F932F933F93C1
:100AA0004F9311272227332744270DE444200AF4CB
:100AB0001AD0209E212D102D309E200D311D08F4BE
:100AC0004395409E300D411D222E332E442E06E0CC
:100AD0004694379427940A95D9F74F913F912F91D7
:100AE0001F910F9108950F93002740943094219403
:100AF00010F0301E401E0F9108950F93D0E0C4E017
:100B00000091C10000620093C10078940F91089594
:100B10000F93389A3A9A3B9A3998419A00EF0AB95A
:100B2000209A219A229AF7DA0F9108950F9300E004
:100B30000093C5000FEC0093C40002E00093C000D6
:100B400006E00093C20008EE0093C1000F910895E3
:100B50000F9308E2CAD1DFDA0CE0C7D1DCDA0F91DB
:100B600008950F931F9301E04BDF96DF3016E0F3FB
:100B700014E01A95C9F344DF8FDF3016D0F716E082
:100B80001A9591F33DDF88DF3016D0F31F910F9156
:100B900008950F93032D003110F40F910895FEE096
:100BA000E0EDB8D143982CDF4A14E9F73914D9F7AE
:0A0BB00005E02016C0F70F9157CAA8
:100E0000202020532E482E492E562E412E200A47B0
:100E10006F6C7065652032207665636573FF436F84
:100E20006C6F71756520756E207661736FFF416719
:100E300075617264652E2E2E20FF476F6C706561A0
:100E40007220322076656365730A70617261206377
:100E5000616D6269617220FF01F450494E54412076
:100E6000283530306D6C290A476F6C7065652070CD
:100E7000617261206F74726F2EFF017743484F508B
:100E80005020283337356D6C290A476F6C706565C3
:100E90002070617261206F74726F2EFF00FA312F23
:100EA000322050494E5441283235306D6C290A4762
:100EB0006F6C7065652070617261206F74726F2055
:100EC000FFFF5369727669656E646F2E2E2E2EFFBA
:100ED0002020202050726F6365736F200A2020202D
:100EE00063616E63656C61646FFF1F93102F107FE9
:100EF0001BB9289829982A9AF7D82A98102F129562
:100F0000107F1BB9289829982A9AEED82A98F5D8E4
:100F10001F9108950F931F9301E0E7DFFCD805911F
:100F20000F3FC9F00A3021F400ECDFDFF4D8F7CF2F
:100F3000102F107F1BB9289A29982A9AD5D82A9859
:100F4000102F1295107F1BB9289A29982A9ACCD86D
:0C0F50002A98D3D8E4CF0F911F91089588
:040000000C94340028
:040040000C94DC0040
:04004C000C945200BE
:1000680008E00EBF0FEF0DBF4FD55CD56DD5FEE094
:10007800EEE24CD7429A4398E6D4FEE0E0E046D759
:100088006CD5FEE0EEE142D75CD0FEE0EAE33ED775
:100098004298439AB1D4FCD478D5FACF0F9308810B
:1000A800CA950093C600C13011F00F9118950091C0
:1000B800C1000F7D0093C1000F9118954F935F9376
:1000C8006F9340E258EC6AEF000000006A95E1F790
:1000D8005A95C9F74A95B1F76F915F914F91089575
:1000E8000000000000000000000000000000000008
:1000F80008950F9308EF06BD002704BD04E005BD71
:10010800A89BFECF002705BDA89A0F9108950F93CD
:1001180005E406BD002704BD04E005BDA89BFECF8D
:10012800002705BDA89A0F9108950F93002706BDD3
:1001380004BD05E005BD01E000936E0024EF0F91BA
:1001480008950F9308EC58D4A3D41FD5442011F474
:100158002016C8F3822CA42C4FD49AD416D54A144E
:1001680091F7281481F7FEE0EEE2D0D66CD40F9117
:1001780008950F931F932F93EF93FF931FEFE8E5D5
:10018800FEE0B590C590B116D1F3C0D6CEDFE5D468
:1001980001E000936E00F5CF00E005BD00E000939C
:1001A8006E007894FF91EF912F911F910F91089510
:0601B8002A9591F3189551
:00000001FF
