:020000020000FC
:040000000C94340028
:040034000C946600C2
:1000680008E00EBF0FEF0DBF789409D034D033D01D
:10007800222718D030D02395283290F7FACF0F9343
:10008800219A01E00093890001E40093880003E8C5
:10009800009380000DE00093810001E000936F0061
:1000A8000F9108950F931F93213248F401E411E052
:1000B800020F08F4139500938800109389001F918C
:1000C8000F9108950F9301E00093850009E30093D1
:1000D80084000F9118954F935F936F9340E258EC0B
:1000E8006AEF000000006A95E1F75A95C9F74A954A
:0A00F800B1F76F915F914F910895E9
:00000001FF
